{
  "contractName": "Marketplace",
  "abi": [
    {
      "anonymous": false,
      "inputs": [
        {
          "indexed": true,
          "internalType": "uint256",
          "name": "id",
          "type": "uint256"
        },
        {
          "indexed": false,
          "internalType": "address",
          "name": "seller",
          "type": "address"
        },
        {
          "indexed": false,
          "internalType": "address",
          "name": "owner",
          "type": "address"
        },
        {
          "indexed": false,
          "internalType": "uint256",
          "name": "price",
          "type": "uint256"
        }
      ],
      "name": "Listed",
      "type": "event"
    },
    {
      "constant": false,
      "inputs": [
        {
          "internalType": "uint256",
          "name": "price",
          "type": "uint256"
        }
      ],
      "name": "createListing",
      "outputs": [],
      "payable": true,
      "stateMutability": "payable",
      "type": "function"
    },
    {
      "constant": false,
      "inputs": [
        {
          "internalType": "uint256",
          "name": "id",
          "type": "uint256"
        }
      ],
      "name": "createSale",
      "outputs": [],
      "payable": true,
      "stateMutability": "payable",
      "type": "function"
    },
    {
      "constant": false,
      "inputs": [],
      "name": "requestCustom",
      "outputs": [],
      "payable": true,
      "stateMutability": "payable",
      "type": "function"
    },
    {
      "constant": false,
      "inputs": [
        {
          "internalType": "uint256",
          "name": "id",
          "type": "uint256"
        }
      ],
      "name": "acceptCustom",
      "outputs": [],
      "payable": true,
      "stateMutability": "payable",
      "type": "function"
    },
    {
      "constant": true,
      "inputs": [],
      "name": "getKbs",
      "outputs": [
        {
          "components": [
            {
              "internalType": "uint256",
              "name": "id",
              "type": "uint256"
            },
            {
              "internalType": "address payable",
              "name": "seller",
              "type": "address"
            },
            {
              "internalType": "address payable",
              "name": "owner",
              "type": "address"
            },
            {
              "internalType": "uint256",
              "name": "price",
              "type": "uint256"
            }
          ],
          "internalType": "struct Marketplace.Listing[]",
          "name": "",
          "type": "tuple[]"
        }
      ],
      "payable": false,
      "stateMutability": "view",
      "type": "function"
    },
    {
      "constant": true,
      "inputs": [],
      "name": "getCt",
      "outputs": [
        {
          "internalType": "uint256",
          "name": "",
          "type": "uint256"
        }
      ],
      "payable": false,
      "stateMutability": "view",
      "type": "function"
    },
    {
      "constant": true,
      "inputs": [],
      "name": "getMyKbs",
      "outputs": [
        {
          "components": [
            {
              "internalType": "uint256",
              "name": "id",
              "type": "uint256"
            },
            {
              "internalType": "address payable",
              "name": "seller",
              "type": "address"
            },
            {
              "internalType": "address payable",
              "name": "owner",
              "type": "address"
            },
            {
              "internalType": "uint256",
              "name": "price",
              "type": "uint256"
            }
          ],
          "internalType": "struct Marketplace.Listing[]",
          "name": "",
          "type": "tuple[]"
        }
      ],
      "payable": false,
      "stateMutability": "view",
      "type": "function"
    }
  ],
  "bytecode": "0x608060405234801561001057600080fd5b50610eee806100206000396000f3fe6080604052600436106100705760003560e01c8063c54090e41161004e578063c54090e4146100e7578063c880be0f14610103578063e46d95511461012e578063e969e97b1461014a57610070565b80630844066e146100755780639da1b02a146100a05780639e82a002146100bc575b600080fd5b34801561008157600080fd5b5061008a610154565b6040516100979190610dbd565b60405180910390f35b6100ba60048036036100b59190810190610b74565b61015d565b005b3480156100c857600080fd5b506100d16102a0565b6040516100de9190610d5b565b60405180910390f35b61010160048036036100fc9190810190610b74565b610535565b005b34801561010f57600080fd5b50610118610637565b6040516101259190610d5b565b60405180910390f35b61014860048036036101439190810190610b74565b610841565b005b6101526109dd565b005b60008054905090565b6000600460008381526020019081526020016000206003015490508034146101ba576040517f08c379a00000000000000000000000000000000000000000000000000000000081526004016101b190610d9d565b60405180910390fd5b6004600083815260200190815260200160002060010160009054906101000a900473ffffffffffffffffffffffffffffffffffffffff1673ffffffffffffffffffffffffffffffffffffffff166108fc349081150290604051600060405180830381858888f19350505050158015610236573d6000803e3d6000fd5b50336004600084815260200190815260200160002060020160006101000a81548173ffffffffffffffffffffffffffffffffffffffff021916908373ffffffffffffffffffffffffffffffffffffffff160217905550600180600082825401925050819055505050565b60606000805490506000809050600080905060008090505b83811015610341573373ffffffffffffffffffffffffffffffffffffffff166004600060018401815260200190815260200160002060020160009054906101000a900473ffffffffffffffffffffffffffffffffffffffff1673ffffffffffffffffffffffffffffffffffffffff161415610334576001830192505b80806001019150506102b8565b5060608260405190808252806020026020018201604052801561037e57816020015b61036b610b0b565b8152602001906001900390816103635790505b50905060008090505b8481101561052a573373ffffffffffffffffffffffffffffffffffffffff166004600060018401815260200190815260200160002060020160009054906101000a900473ffffffffffffffffffffffffffffffffffffffff1673ffffffffffffffffffffffffffffffffffffffff16141561051d57600060046000600184018152602001908152602001600020600001549050600060046000838152602001908152602001600020905080604051806080016040529081600082015481526020016001820160009054906101000a900473ffffffffffffffffffffffffffffffffffffffff1673ffffffffffffffffffffffffffffffffffffffff1673ffffffffffffffffffffffffffffffffffffffff1681526020016002820160009054906101000a900473ffffffffffffffffffffffffffffffffffffffff1673ffffffffffffffffffffffffffffffffffffffff1673ffffffffffffffffffffffffffffffffffffffff16815260200160038201548152505084868151811061050957fe5b602002602001018190525060018501945050505b8080600101915050610387565b508094505050505090565b600060056000838152602001908152602001600020600301549050336005600084815260200190815260200160002060020160006101000a81548173ffffffffffffffffffffffffffffffffffffffff021916908373ffffffffffffffffffffffffffffffffffffffff1602179055506005600083815260200190815260200160002060020160009054906101000a900473ffffffffffffffffffffffffffffffffffffffff1673ffffffffffffffffffffffffffffffffffffffff166108fc829081150290604051600060405180830381858888f19350505050158015610621573d6000803e3d6000fd5b5060016003600082825401925050819055505050565b6060600080549050600060015482039050600080905060608260405190808252806020026020018201604052801561068957816020015b610676610b0b565b81526020019060019003908161066e5790505b50905060008090505b8481101561083657600073ffffffffffffffffffffffffffffffffffffffff166004600060018401815260200190815260200160002060020160009054906101000a900473ffffffffffffffffffffffffffffffffffffffff1673ffffffffffffffffffffffffffffffffffffffff16141561082957600060046000600184018152602001908152602001600020600001549050600060046000838152602001908152602001600020905080604051806080016040529081600082015481526020016001820160009054906101000a900473ffffffffffffffffffffffffffffffffffffffff1673ffffffffffffffffffffffffffffffffffffffff1673ffffffffffffffffffffffffffffffffffffffff1681526020016002820160009054906101000a900473ffffffffffffffffffffffffffffffffffffffff1673ffffffffffffffffffffffffffffffffffffffff1673ffffffffffffffffffffffffffffffffffffffff16815260200160038201548152505084868151811061081557fe5b602002602001018190525060018501945050505b8080600101915050610692565b508094505050505090565b60008111610884576040517f08c379a000000000000000000000000000000000000000000000000000000000815260040161087b90610d7d565b60405180910390fd5b60016000540160008190555060008054905060405180608001604052808281526020013373ffffffffffffffffffffffffffffffffffffffff168152602001600073ffffffffffffffffffffffffffffffffffffffff16815260200183815250600460008381526020019081526020016000206000820151816000015560208201518160010160006101000a81548173ffffffffffffffffffffffffffffffffffffffff021916908373ffffffffffffffffffffffffffffffffffffffff16021790555060408201518160020160006101000a81548173ffffffffffffffffffffffffffffffffffffffff021916908373ffffffffffffffffffffffffffffffffffffffff16021790555060608201518160030155905050807f3a3b6270fcdc37ecb0bed48e10b15c0da4f9a03683cf6fe36b77460982095231336000856040516109d193929190610d24565b60405180910390a25050565b600034116109ea57600080fd5b60016002600082825401925050819055506000600254905060405180608001604052808281526020013373ffffffffffffffffffffffffffffffffffffffff168152602001600073ffffffffffffffffffffffffffffffffffffffff16815260200134815250600560008381526020019081526020016000206000820151816000015560208201518160010160006101000a81548173ffffffffffffffffffffffffffffffffffffffff021916908373ffffffffffffffffffffffffffffffffffffffff16021790555060408201518160020160006101000a81548173ffffffffffffffffffffffffffffffffffffffff021916908373ffffffffffffffffffffffffffffffffffffffff1602179055506060820151816003015590505050565b604051806080016040528060008152602001600073ffffffffffffffffffffffffffffffffffffffff168152602001600073ffffffffffffffffffffffffffffffffffffffff168152602001600081525090565b600081359050610b6e81610e94565b92915050565b600060208284031215610b8657600080fd5b6000610b9484828501610b5f565b91505092915050565b6000610ba98383610cb1565b60808301905092915050565b610bbe81610e5e565b82525050565b610bcd81610e22565b82525050565b6000610bde82610de8565b610be88185610e00565b9350610bf383610dd8565b8060005b83811015610c24578151610c0b8882610b9d565b9750610c1683610df3565b925050600181019050610bf7565b5085935050505092915050565b6000610c3e601483610e11565b91507f506c6561736520736574207072696365203e20300000000000000000000000006000830152602082019050919050565b6000610c7e601683610e11565b91507f5061792074686520636f727265637420616d6f756e74000000000000000000006000830152602082019050919050565b608082016000820151610cc76000850182610d06565b506020820151610cda6020850182610bc4565b506040820151610ced6040850182610bc4565b506060820151610d006060850182610d06565b50505050565b610d0f81610e54565b82525050565b610d1e81610e54565b82525050565b6000606082019050610d396000830186610bb5565b610d466020830185610bb5565b610d536040830184610d15565b949350505050565b60006020820190508181036000830152610d758184610bd3565b905092915050565b60006020820190508181036000830152610d9681610c31565b9050919050565b60006020820190508181036000830152610db681610c71565b9050919050565b6000602082019050610dd26000830184610d15565b92915050565b6000819050602082019050919050565b600081519050919050565b6000602082019050919050565b600082825260208201905092915050565b600082825260208201905092915050565b6000610e2d82610e34565b9050919050565b600073ffffffffffffffffffffffffffffffffffffffff82169050919050565b6000819050919050565b6000610e6982610e70565b9050919050565b6000610e7b82610e82565b9050919050565b6000610e8d82610e34565b9050919050565b610e9d81610e54565b8114610ea857600080fd5b5056fea365627a7a723158207e3d22f6c1de759af78896add0c1f6e25361ffcebe3e71f0ea841262d972e7d96c6578706572696d656e74616cf564736f6c63430005100040",
  "source": "// SPDX-License-Identifier: UNLICENSED\r\npragma solidity >=0.5.16;\r\npragma experimental ABIEncoderV2;\r\n\r\ncontract Marketplace {\r\n  uint kbIds;\r\n  uint _kbSold;\r\n  uint _customIds;\r\n  uint _customSold;\r\n\r\n  // address public owner;\r\n\r\n  // constructor() {\r\n  //   owner = msg.sender;\r\n  // }\r\n\r\n  struct Listing {\r\n    uint id;\r\n    address payable seller;\r\n    address payable owner;\r\n    uint price;\r\n  }\r\n\r\n  struct Custom {\r\n      uint id;\r\n      address payable requester;\r\n      address payable acceptor;\r\n      uint price;\r\n  }\r\n\r\n  mapping(uint => Listing) idToListing;\r\n  mapping(uint => Custom) idToCustom;\r\n\r\n  event Listed (\r\n    uint indexed id,\r\n    address seller,\r\n    address owner,\r\n    uint price\r\n  );\r\n\r\n  function createListing(uint price) public payable{\r\n    require(price > 0, \"Please set price > 0\");\r\n\r\n    kbIds = kbIds + 1;\r\n    uint idx = kbIds;\r\n\r\n    idToListing[idx] = Listing(\r\n      idx, address(uint160(msg.sender)), address(uint160(0)), price\r\n    );\r\n\r\n    emit Listed (idx, msg.sender, address(0), price);\r\n  }\r\n  \r\n  function createSale(uint id) public payable {\r\n    uint price = idToListing[id].price;\r\n\r\n    require(msg.value == price, \"Pay the correct amount\");\r\n\r\n    idToListing[id].seller.transfer(msg.value);\r\n    idToListing[id].owner = address(uint160(msg.sender));\r\n    _kbSold += 1;\r\n  }\r\n\r\n  function requestCustom() public payable {\r\n    require(msg.value > 0);\r\n    _customIds += 1;\r\n    uint id = _customIds;\r\n\r\n    idToCustom[id] = Custom(\r\n        id, address(uint160(msg.sender)), address(uint160(0)), msg.value \r\n    );\r\n  }\r\n\r\n  function acceptCustom(uint id) public payable {\r\n    uint price = idToCustom[id].price;\r\n    idToCustom[id].acceptor = address(uint160(msg.sender));\r\n    idToCustom[id].acceptor.transfer(price);\r\n    _customSold += 1;\r\n\r\n  }\r\n\r\n  function getKbs() public view returns (Listing[] memory) {\r\n    uint itemCount = kbIds;\r\n    uint unsoldCt = itemCount - _kbSold;\r\n    uint currentIndex = 0;\r\n\r\n    Listing[] memory kbs = new Listing[](unsoldCt);\r\n    for (uint i = 0; i < itemCount; i++){\r\n      if (idToListing[i+1].owner == address(0)){\r\n        uint currentId = idToListing[i+1].id;\r\n        Listing storage currentItem = idToListing[currentId];\r\n        kbs[currentIndex] = currentItem;\r\n        currentIndex += 1;\r\n      }\r\n    }\r\n\r\n    return kbs;\r\n  }\r\n\r\n  function getCt() view public returns (uint){\r\n    return kbIds;\r\n  }\r\n\r\n  function getMyKbs() public view returns (Listing[] memory){\r\n    uint totalItemCount = kbIds;\r\n    uint itemCount = 0;\r\n    uint currentIndex = 0;\r\n\r\n    for(uint i = 0; i < totalItemCount; i++){\r\n      if(idToListing[i+1].owner == msg.sender){\r\n        itemCount += 1;\r\n      }\r\n    }\r\n\r\n    Listing[] memory kbs = new Listing[](itemCount);\r\n    for (uint i = 0; i < totalItemCount; i++){\r\n      if (idToListing[i+1].owner == msg.sender){\r\n        uint currentId = idToListing[i+1].id;\r\n        Listing storage currentItem = idToListing[currentId];\r\n        kbs[currentIndex] = currentItem;\r\n        currentIndex += 1;\r\n      }\r\n    }\r\n    return kbs;\r\n  }\r\n} ",
  "sourcePath": "C:\\Users\\ericv\\OneDrive\\.EVERY CSE COURSE\\CSE 426 Blockchain Apps\\MKM-Dapp\\mkm-contract\\contracts\\Marketplace.sol",
  "compiler": {
    "name": "solc",
    "version": "0.5.16+commit.9c3226ce.Emscripten.clang"
  },
  "schemaVersion": "3.4.7",
  "updatedAt": "2022-04-18T01:47:14.459Z",
  "networkType": "ethereum",
  "devdoc": {
    "methods": {}
  },
  "userdoc": {
    "methods": {}
  }
}